:100000000C94F3000C9410010C9410010C9410014A
:100010000C9410010C9410010C9410010C9410011C
:100020000C9410010C9410010C943D030C94780373
:100030000C9410010C9410010C9410010C941001FC
:100040000C9410010C9410010C9410010C941001EC
:100050000C9410010C9410010C9410010C941001DC
:100060000C9410010C9410010C9410010C941001CC
:100070000C9410010C9410010C9410010C941001BC
:100080000C9410010C9410010C9410010C941001AC
:100090000C9410010C9410010C9410010C9410019C
:1000A0000C9410010C9410010C941001DA02D70288
:1000B000D402D102CE02CB02C802C502C202BF02E4
:1000C000BC02B902B602B302B002AD02AA02A70294
:1000D000A402A1029E029B029802950292028F0244
:1000E0008C0289028602830280027D027A027702F4
:1000F000740271026E026B026802650262025F02A4
:100100005C0259025602530250024D024A02470253
:10011000440241023E023B023802350232022F0203
:100120002C0229022602230220021D021A020A00C2
:100130000A0000010000660112000200007801437D
:1001400000030000BB010401030904BF0112020304
:100150000904D3010603030904DB01080001C112ED
:100160000180360181361201000202000010C01623
:100170007A0400010102030109024300020100C0E8
:1001800032090400000102020100052400100105EB
:10019000240101010424020605240600010705824A
:1001A0000310004009040100020A000000070503D3
:1001B0000240000007058402400000040309041205
:1001C000034A002E0020004600690065006E0065AD
:1001D00000000006034D0032000000080334003127
:1001E00000300000000011241FBECFEFDAE0DEBFB8
:1001F000CDBF11E0A0E0B1E0E6EBF1E102C0059077
:100200000D92A830B107D9F721E0A8E0B1E001C014
:100210001D92AC30B207E1F70E94F9050C94D908A1
:100220000C94000081E08093D70080EA8093D8008E
:1002300082E189BD09B400FEFDCF80E98093D8003A
:100240001092E00010920801109209018CE0809356
:10025000E200789408958091080108959FB7F8947A
:1002600080910801882339F083E08093E900809130
:10027000E80085FD03C09FBF8FEF08952091F10036
:100280008091E80085FD03C08BE68093E8009FBF66
:10029000822F08959FB7F89480910801882329F050
:1002A00083E08093E9008091F2009FBF08958091E0
:1002B0000801882371F09FB7F89483E08093E900E8
:1002C0002BE602C02093E8008091E80085FDFACF7C
:1002D0009FBF0895482F809108018823D9F12FB737
:1002E000F89484E08093E90080910B01882341F029
:1002F0008091E80085FD02C02FBF12C010920B0153
:100300009091E400975E34E08091E80085FD13C091
:100310002FBF8091E400891729F481E080930B01BD
:100320008FEF0895809108018823A1F02FB7F894EA
:100330003093E900E9CF4093F1008091E80085FD1A
:1003400003C08AE38093E80085E080930A012FBF11
:1003500080E008958FEF0895282F80910801882369
:1003600051F09FB7F89484E08093E9008091E80011
:1003700085FD03C09FBF8FEF08952093F10080910A
:10038000E80085FD03C08AE38093E80085E0809360
:100390000A019FBF80E00895CF93DF93EC01809125
:1003A0000801882309F41CC13FB7F89484E08093C6
:1003B000E90080910B01882309F407C18091E800CE
:1003C00085FD02C03FBF0CC110920B01FEC0909191
:1003D000E400975E8091E80085FD13C03FBF8091E7
:1003E000E400891721F481E080930B01F9C080912A
:1003F0000801882309F4F4C03FB7F8945093E9004A
:10040000E9CF8091F2002A2F281B822F90E06817F5
:10041000790708F4262F822F90E08134910508F0A7
:10042000C6C08A5A9F4FFC01EE0FFF1F0590F49142
:10043000E02D099489918093F10089918093F100D6
:1004400089918093F10089918093F1008991809343
:10045000F10089918093F10089918093F100899155
:100460008093F10089918093F10089918093F1004C
:1004700089918093F10089918093F1008991809313
:10048000F10089918093F10089918093F100899125
:100490008093F10089918093F10089918093F1001C
:1004A00089918093F10089918093F10089918093E3
:1004B000F10089918093F10089918093F1008991F5
:1004C0008093F10089918093F10089918093F100EC
:1004D00089918093F10089918093F10089918093B3
:1004E000F10089918093F10089918093F1008991C5
:1004F0008093F10089918093F10089918093F100BC
:1005000089918093F10089918093F1008991809382
:10051000F10089918093F10089918093F100899194
:100520008093F10089918093F10089918093F1008B
:1005300089918093F10089918093F1008991809352
:10054000F10089918093F10089918093F100899164
:100550008093F10089918093F10089918093F1005B
:1005600089918093F10089918093F1008991809322
:10057000F10089918093F10089918093F100899134
:100580008093F10089918093F10089918093F1002B
:1005900089918093F10089918093F10089918093F2
:1005A000F10089918093F10089918093F100899104
:1005B0008093F1008091E80085FD02C0B093E800CF
:1005C000621B710940930A0104C054E0A0E4BAE33D
:1005D00045E06115710509F0FACE3FBF80E001C02A
:1005E0008FEFDF91CF9108959FB7F89480910A0122
:1005F000882341F084E08093E9008AE38093E80057
:1006000010920A019FBF089580910401089580917E
:1006100005010895809106010895809109010895CA
:10062000382F9FB7F89480910801882339F022E091
:100630002093E9008091E80085FD03C09FBF8FEF04
:10064000089581EA8093F10080E28093F100109296
:10065000F1001092F1001092F1001092F10020933D
:10066000F1001092F1003093F1001092F1008AE352
:100670008093E8009FBF80E008951F920F920FB60D
:100680000F9211248F939F938091E1001092E100CB
:10069000982F83FF11C01092E90081E08093EB0056
:1006A0001092EC0082E18093ED0088E08093F000EE
:1006B000109208011092090192FF13C08091080165
:1006C000882379F080910A01882359F08150809322
:1006D0000A01882331F484E08093E9008AE380935F
:1006E000E8009F918F910F900FBE0F901F9018956B
:1006F0001F920F920FB60F9211240F931F932F93F7
:100700003F934F935F936F937F938F939F93AF9399
:10071000BF93EF93FF931092E9008091E80083FF6D
:100720003CC14091F1003091F1008091F100682FBF
:1007300070E02091F100922F80E0682B792B80915E
:10074000F100A82FB0E02091F100922F80E0A82BBB
:10075000B92B1091F1000091F10082EF8093E80035
:10076000363009F05AC029E331E0A9014550504024
:10077000F9013797859194918617970701F5FA014A
:10078000859194918A179B07D1F49A012E5F3F4F70
:10079000F901659174912E5F3F4FF9014491212F2A
:1007A00030E0902F80E0282B392B2F3F310519F0B6
:1007B00010F02FEF30E0241758F4422F09C0295FC2
:1007C0003F4F495F5F4FF1E023363F0789F6E5C0B1
:1007D0005EEF8091E800282F30E0C90185709070AD
:1007E000892BB9F322FDDCC0342F413108F030E110
:1007F000232FCB0106C0FC010196E491E093F100A8
:1008000021502223C1F7630F711D431B5093E80051
:100810004423F9F63031E9F2C3C0353061F48EEF8C
:100820008093E8008091E80080FFFCCF862F8068ED
:100830008093E300B5C0393051F5442309F0ADC0D1
:10084000609308011092090110920A018EEF8093C3
:10085000E8008CE591E021E02093E900FC0101969D
:10086000E491E093EB00EE2369F0AC014F5F5F4F42
:10087000FC0184918093EC00CA010196FA01349145
:100880003093ED002F5F253039F78EE181C038308D
:1008900061F4403809F081C08091E80080FFFCCF0E
:1008A000809108018093F10050C0313289F4413ABF
:1008B00009F073C08091E80080FFFCCFE0E0F1E038
:1008C00081918093F10081E0E730F807C9F73DC0DE
:1008D0003032A1F4413209F060C08091E80082FF1B
:1008E000FCCFE0E0F1E08091F100819381E0E7301E
:1008F000F807C9F78BEF8093E80027C0323251F434
:10090000413209F04AC0609309018091E80080FFFC
:10091000FCCF1BC03323E9F48091E80080FFFCCFBB
:10092000423811F080E00DC0A093E9008091EB0007
:1009300090E025E0969587952A95E1F781701092D1
:10094000E9008093F1001092F1008EEF8093E800AF
:1009500027C0313011F0333001F54230F1F4672B0C
:10096000E1F42A2F2F77822F81508430B0F48EEF5C
:100970008093E8002093E900333079F089E1809397
:10098000EB0081E090E002C0880F991F2A95E2F702
:100990008093EA001092EA0003C081E28093EB00AA
:1009A000FF91EF91BF91AF919F918F917F916F9147
:1009B0005F914F913F912F911F910F910F900FBE1B
:1009C0000F901F9018951F93CF93DF93EC01FE01BA
:1009D00021961491112349F01A3019F48DE00E94E8
:1009E0006A01812F0E946A01F2CFDF91CF911F919E
:1009F0000895982F8A3010F087E301C080E3890FB3
:100A00000E946A0108951F93182F82958F700E948B
:100A1000F904812F8F700E94F9041F9108951F938C
:100A2000182F892F0E940305812F0E9403051F9113
:100A300008950E9403050895EF92FF920F931F936C
:100A4000DF93CF93CDB7DEB72B970FB6F894DEBF09
:100A50000FBECDBF8E010F5F1F4F2BE0F80111922B
:100A60002A95E9F7A8012AE030E00E9477083BE0E8
:100A7000E32EF12CEC0EFD1EF8018081882311F08D
:100A80000E946A010F5F1F4F0E151F05A9F72B96D5
:100A90000FB6F894DEBF0FBECDBFCF91DF911F918F
:100AA0000F91FF90EF900895EF92FF920F931F9395
:100AB000DF93CF93CDB7DEB72B970FB6F894DEBF99
:100AC0000FBECDBF8E010F5F1F4F2BE0F8011192BB
:100AD0002A95E9F7A8012AE030E00E945D084CE081
:100AE000E42EF12CEC0EFD1EF8018081882311F01C
:100AF0000E946A010F5F1F4F0E151F05A9F72B9665
:100B00000FB6F894DEBF0FBECDBFCF91DF911F911E
:100B10000F91FF90EF900895EF92FF920F931F9324
:100B2000DF93CF9300D000D000D0CDB7DEB78E01D9
:100B30000F5F1F4F26E0F80111922A95E9F7B801DF
:100B40004AE050E00E94A40856E0E52EF12CEC0E9D
:100B5000FD1EF8018081882311F00E946A010F5F59
:100B60001F4F0E151F05A9F726960FB6F894DEBF86
:100B70000FBECDBFCF91DF911F910F91FF90EF90EE
:100B80000895EF92FF920F931F93DF93CF93CDB70A
:100B9000DEB727970FB6F894DEBF0FBECDBF8E012C
:100BA0000F5F1F4F27E0F80111922A95E9F7B8016E
:100BB0004AE050E00E94470868E0E62EF12CEC0E77
:100BC000FD1EF8018081882311F00E946A010F5FE9
:100BD0001F4F0E151F05A9F727960FB6F894DEBF15
:100BE0000FBECDBFCF91DF911F910F91FF90EF907E
:100BF0000895569A5E980E941201809191008B7F11
:100C00008093910080919100826080939100809107
:100C10009100816080939100809191008061809328
:100C20009100809191008860809391008091900064
:100C3000826080939000809190008E7F80939000DE
:100C400080919000806880939000809190008064F3
:100C50008093900080917C008F7780937C008091BE
:100C60007C00806480937C0080917A008460809313
:100C70007A0080917A00826080937A0080917A0075
:100C8000816080937A0080917D00806180937D00F7
:100C900080917A00806280937A0080917B008062EC
:100CA00080937B0080917C00846080937C008091A5
:100CB0007C008D7F80937C0080917C008E7F809370
:100CC0007C0080917A00806880937A0080917A001D
:100CD000806480937A00C0E824982C9A1C9B0FC0F3
:100CE0000E944A018823D1F0809178009091790088
:100CF0000E948C0580E391E00E94E3040FC00E94F3
:100D00004A01882371F080917800909179000E94C7
:100D10008C058EE291E00E94E30403C004E610E03B
:100D200002C000E21EE4609196007091970080E09E
:100D300090E00E94560720E030E040E05FE30E9430
:100D4000E4070E942A077093990060939800B80105
:100D5000882777FD8095982F0E9458079B01AC014A
:100D600060E074E284E798E40E94C2060E942A07C9
:100D700070939700609396003E9AC0936100109222
:100D80006100AACF0CD0E6C0DED040F0D5D030F064
:100D900021F45F3F19F0C7C0511110C1CAC0EBD098
:100DA00098F39923C9F35523B1F3951B550BBB2732
:100DB000AA2762177307840738F09F5F5F4F220FDF
:100DC000331F441FAA1FA9F333D00E2E3AF0E0E8D8
:100DD00030D091505040E695001CCAF729D0FE2F24
:100DE00027D0660F771F881FBB1F261737074807B6
:100DF000AB07B0E809F0BB0B802DBF01FF2793586C
:100E00005F4F2AF09E3F510568F08DC0D7C05F3F0D
:100E1000ECF3983EDCF3869577956795B795F79553
:100E20009F5FC9F7880F911D9695879597F908954B
:100E3000E1E0660F771F881FBB1F621773078407E7
:100E4000BA0720F0621B730B840BBA0BEE1F88F7F6
:100E5000E095089598D088F09F5790F0B92F992782
:100E6000B751A0F0D1F0660F771F881F991F1AF0B5
:100E7000BA95C9F712C0B13081F09FD0B1E00895A2
:100E80009CC0672F782F8827B85F39F0B93FCCF323
:100E9000869577956795B395D9F73EF490958095AB
:100EA000709561957F4F8F4F9F4F0895E89409C0CB
:100EB00097FB3EF490958095709561957F4F8F4F8D
:100EC0009F4F9923A9F0F92F96E9BB279395F695A3
:100ED000879577956795B795F111F8CFFAF4BB0F21
:100EE00011F460FF1BC06F5F7F4F8F4F9F4F16C085
:100EF000882311F096E911C0772321F09EE8872F0F
:100F0000762F05C0662371F096E8862F70E060E0CA
:100F10002AF09A95660F771F881FDAF7880F969543
:100F2000879597F9089597F99F6780E870E060E0EA
:100F300008959FEF80EC089500240A941616170672
:100F400018060906089500240A94121613061406BA
:100F500005060895092E0394000C11F4882352F01D
:100F6000BB0F40F4BF2B11F460FF04C06F5F7F4FD5
:100F70008F4F9F4F089557FD9058440F551F59F0BC
:100F80005F3F71F04795880F97FB991F61F09F3F76
:100F900079F087950895121613061406551FF2CF9F
:100FA0004695F1DF08C0161617061806991FF1CFEF
:100FB00086957105610508940895E894BB27662716
:100FC0007727CB0197F908950BD0C4CFB5DF28F070
:100FD000BADF18F0952309F0A6CFABCF1124EECFDE
:100FE000CADFA0F3959FD1F3950F50E0551F629F84
:100FF000F001729FBB27F00DB11D639FAA27F00D72
:10100000B11DAA1F649F6627B00DA11D661F829F98
:101010002227B00DA11D621F739FB00DA11D621F7D
:10102000839FA00D611D221F749F3327A00D611D9A
:10103000231F849F600D211D822F762F6A2F11247C
:101040009F5750408AF0E1F088234AF0EE0FFF1FCF
:10105000BB1F661F771F881F91505040A9F79E3F06
:10106000510570F060CFAACF5F3FECF3983EDCF300
:10107000869577956795B795F795E7959F5FC1F743
:10108000FE2B880F911D9695879597F90895453207
:10109000510520F4423010F00C945208FB011082EC
:1010A000CB010895BB274A3031F4992322F4BDE2E5
:1010B000909581959F4F0C94B0082532310520F40E
:1010C000223010F00C946808FA011082CA010895C9
:1010D000BB272A3051F4992342F4BDE290958095C4
:1010E000709561957F4F8F4F9F4F0C9483082532E9
:1010F000310520F4223010F00C948208FA0110829D
:10110000CA010895BB27FA01A62F62177105810550
:101110009105330B30FB66F0AA27660F771F881FF7
:10112000991FAA1FA21710F0A21B63953850A9F7A8
:10113000A05DAA3308F0A95DA19336F7B111B19370
:101140001082CA010C94C9084532510520F442307E
:1011500010F00C94AF08FB011082CB010895BB275F
:10116000FB015527AA27880F991FAA1FA41710F063
:10117000A41B83955051B9F7A05DAA3308F0A95D6F
:10118000A193009779F7B111B1931192CB010C940F
:10119000C908DC01FC01672F71917723E1F73297D1
:1011A00004C07C916D9370836291AE17BF07C8F342
:0611B0000895F894FFCF42
:0811B60000E100000000080048
:00000001FF
