:100000000C9456000C9460000C9460000C946000FA
:100010000C9460000C9460000C9460000C946000E0
:100020000C9460000C9460000C9460000C946000D0
:100030000C9460000C9460000C9460000C946000C0
:100040000C9460000C9460000C9460000C946000B0
:100050000C9460000C9460000C9460000C946000A0
:100060000C9460000C9460000C9460000C94600090
:100070000C9460000C9460000C9460000C94600080
:100080000C9460000C9460000C9460000C94600070
:100090000C9460000C9460000C9460000C94600060
:1000A0000C9460000C9460000C94600011241FBE3E
:1000B000CFEFDAE0DEBFCDBF0E9462000C94A20059
:1000C0000C940000569A5E9888EB9BE09093990000
:1000D0008093980080EE9EE2909397008093960024
:1000E0003E9A80E8809361001092610080919100B7
:1000F0008B7F80939100809191008260809391002A
:100100008091910081608093910080919100806145
:1001100080939100809191008860809391008091FC
:100120009000826080939000809190008E7F8093F9
:100130009000809190008068809390008091900062
:080140008064F5CFF894FFCFB5
:00000001FF
