:100000000C9456000C9460000C9460000C946000FA
:100010000C9460000C9460000C9460000C946000E0
:100020000C9460000C9460000C9460000C946000D0
:100030000C9460000C9460000C9460000C946000C0
:100040000C9460000C9460000C9460000C946000B0
:100050000C9460000C9460000C9460000C946000A0
:100060000C9460000C9460000C9460000C94600090
:100070000C9460000C9460000C9460000C94600080
:100080000C9460000C9460000C9460000C94600070
:100090000C9460000C9460000C9460000C94600060
:1000A0000C9460000C9460000C94600011241FBE3E
:1000B000CFEFDAE0DEBFCDBF0E9462000C94A60055
:1000C0000C940000FF920F931F933E9A259A249A56
:1000D00080E8809361001092610080E4F82E40E592
:1000E00053EC00E2A8EAB1E610E160E177E220E932
:1000F00031E088B18F2588B9CA010197F1F785B140
:10010000802785B9CD010197F1F785B1812785B9A0
:10011000CB010197F1F785B18F2585B9CA01019708
:10012000F1F785B1802785B98BEB90E0F901319724
:10013000F1F70197D9F785B1812785B981EE90E074
:10014000F9013197F1F70197D9F7D3CFF894FFCFA1
:00000001FF
