:100000000C94F2000C940F010C940F010C940F014E
:100010000C940F010C940F010C940F010C940F0120
:100020000C940F010C940F010C9493040C94CE04C7
:100030000C940F010C940F010C940F010C940F0100
:100040000C940F010C940F010C940F010C940F01F0
:100050000C940F010C940F010C940F010C940F01E0
:100060000C940F010C940F010C940F010C940F01D0
:100070000C940F010C940F010C940F010C940F01C0
:100080000C940F010C940F010C940F010C940F01B0
:100090000C940F010C940F010C940F010C940F01A0
:1000A0000C940F010C940F010C940F0130042D04DB
:1000B0002A042704240421041E041B041804150424
:1000C00012040F040C040904060403040004FD03D5
:1000D000FA03F703F403F103EE03EB03E803E5038C
:1000E000E203DF03DC03D903D603D303D003CD033C
:1000F000CA03C703C403C103BE03BB03B803B503EC
:10010000B203AF03AC03A903A603A303A0039D039B
:100110009A039703940391038E038B03880385034B
:1001200082037F037C0379037603730370030A0061
:100130000001000064011200020000760143000388
:100140000000B9010401030904BD011202030904FE
:10015000D1010603030904D901080001C11201807D
:10016000360181361201000202000010C0167A0426
:1001700000010102030109024300020100C032092B
:100180000400000102020100052400100105240101
:10019000010104240206052406000107058203105C
:1001A000004009040100020A0000000705030240A4
:1001B0000000070584024000000403090412034AFA
:1001C000002E0020004600690065006E00650000FA
:1001D0000006034D003200000008033400310030F7
:1001E0000000000011241FBECFEFDAE0DEBFCDBF5C
:1001F00011E0A0E0B1E0E6E3F0E102C005900D926D
:10020000A434B107D9F721E0A4E4B1E001C01D9204
:10021000AA34B207E1F70E944F070C9419080C9416
:100220000000FC013181228193818081813321F49E
:1002300080917B00806203C080917B008F7D8093E2
:100240007B0080917C00313311F4846001C08B7F8E
:1002500080937C0080917C00213311F4826001C086
:100260008D7F80937C0080917C00913311F48160BC
:1002700001C08E7F80937C000895843409F489C086
:10028000863421F0823409F010C1C9C06430710590
:10029000B1F13CF46115710571F061307105E9F05F
:1002A00008956630710509F450C0DCF167307105BE
:1002B00009F45DC0089510924501109244018098A0
:1002C00080917E00816080937E0080917A008062C0
:1002D00080937A0087E091E0E6C0709345016093D7
:1002E0004401819880917E00826080937E0080919D
:1002F0007A00806280937A008CE091E0D4C07093A1
:10030000450160934401849880917E0080618093D0
:100310007E0080917A00806280937A0081E191E092
:10032000C2C085E090E09093450180934401859898
:1003300080917E00806280937E0080917A0080624E
:1003400080937A0086E191E0AEC086987093450173
:100350006093440180917E00806480937E00809150
:100360007A00806280937A008BE191E09CC0709368
:10037000450160934401879880917E008068809356
:100380007E0080917A00806280937A0080E291E022
:100390008AC066307105D9F06730710561F164304B
:1003A000710509F082C088E090E090934501809348
:1003B0004401549880917D00816080937D008091FC
:1003C0007A00806280937A0085E291E06CC089E0D7
:1003D00090E09093450180934401569880917D0070
:1003E000826080937D0080917A00806280937A00A1
:1003F0008AE291E058C08AE090E0909345018093B2
:100400004401579880917D00846080937D008091A5
:100410007A00806280937A008FE291E044C0653078
:100420007105D1F06630710559F164307105E9F557
:100430008BE090E090934501809344012498809153
:100440007D00886080937D0080917A008062809337
:100450007A0084E391E027C08CE090E0909345011E
:1004600080934401259880917D00806180937D0078
:1004700080917A00806280937A0089E391E013C0D2
:100480008DE090E0909345018093440126988091FF
:100490007D00806280937D0080917A0080628093ED
:1004A0007A008EE391E00C941101089580917A0016
:1004B00084FF09C0809178009091790080917A0042
:1004C000806180937A0080917800909179000895FE
:1004D00081E08093D70080EA8093D80082E189BDD3
:1004E00009B400FEFDCF80E98093D8001092E000AF
:1004F00010924601109247018CE08093E2007894BC
:1005000008958091460108959FB7F894809146011F
:10051000882339F083E08093E9008091E80085FD2D
:1005200003C09FBF8FEF08952091F1008091E800F4
:1005300085FD03C08BE68093E8009FBF822F08955E
:100540009FB7F89480914601882329F083E0809337
:10055000E9008091F2009FBF0895809146018823B1
:1005600071F09FB7F89483E08093E9002BE602C016
:100570002093E8008091E80085FDFACF9FBF0895A1
:10058000482F809146018823D9F12FB7F89484E051
:100590008093E90080914901882341F08091E8002F
:1005A00085FD02C02FBF12C0109249019091E40056
:1005B000975E34E08091E80085FD13C02FBF8091E5
:1005C000E400891729F481E0809349018FEF0895B1
:1005D000809146018823A1F02FB7F8943093E90069
:1005E000E9CF4093F1008091E80085FD03C08AE3E4
:1005F0008093E80085E0809348012FBF80E0089554
:100600008FEF0895282F80914601882351F09FB7DE
:10061000F89484E08093E9008091E80085FD03C0B0
:100620009FBF8FEF08952093F1008091E80085FD32
:1006300003C08AE38093E80085E0809348019FBF70
:1006400080E00895CF93DF93EC01809146018823E9
:1006500009F41CC13FB7F89484E08093E9008091CD
:100660004901882309F407C18091E80085FD02C093
:100670003FBF0CC110924901FEC09091E400975E0B
:100680008091E80085FD13C03FBF8091E400891789
:1006900021F481E080934901F9C0809146018823CB
:1006A00009F4F4C03FB7F8945093E900E9CF809182
:1006B000F2002A2F281B822F90E06817790708F490
:1006C000262F822F90E08134910508F0C6C08A5A07
:1006D0009F4FFC01EE0FFF1F0590F491E02D099450
:1006E00089918093F10089918093F10089918093A1
:1006F000F10089918093F10089918093F1008991B3
:100700008093F10089918093F10089918093F100A9
:1007100089918093F10089918093F1008991809370
:10072000F10089918093F10089918093F100899182
:100730008093F10089918093F10089918093F10079
:1007400089918093F10089918093F1008991809340
:10075000F10089918093F10089918093F100899152
:100760008093F10089918093F10089918093F10049
:1007700089918093F10089918093F1008991809310
:10078000F10089918093F10089918093F100899122
:100790008093F10089918093F10089918093F10019
:1007A00089918093F10089918093F10089918093E0
:1007B000F10089918093F10089918093F1008991F2
:1007C0008093F10089918093F10089918093F100E9
:1007D00089918093F10089918093F10089918093B0
:1007E000F10089918093F10089918093F1008991C2
:1007F0008093F10089918093F10089918093F100B9
:1008000089918093F10089918093F100899180937F
:10081000F10089918093F10089918093F100899191
:100820008093F10089918093F10089918093F10088
:1008300089918093F10089918093F100899180934F
:10084000F10089918093F10089918093F100899161
:100850008093F10089918093F10089918093F10058
:100860008091E80085FD02C0B093E800621B710929
:100870004093480104C054E0A0E4BAE345E06115A8
:10088000710509F0FACE3FBF80E001C08FEFDF9124
:10089000CF9108959FB7F89480914801882341F043
:1008A00084E08093E9008AE38093E8001092480195
:1008B0009FBF0895809104010895809105010895D6
:1008C000809106010895809147010895382F9FB7C0
:1008D000F89480914601882339F022E02093E900C2
:1008E0008091E80085FD03C09FBF8FEF089581EAE6
:1008F0008093F10080E28093F1001092F100109259
:10090000F1001092F1001092F1002093F10010928A
:10091000F1003093F1001092F1008AE38093E80037
:100920009FBF80E008951F920F920FB60F9211247F
:100930008F939F938091E1001092E100982F83FFA5
:1009400011C01092E90081E08093EB001092EC005E
:1009500082E18093ED0088E08093F00010924601E0
:100960001092470192FF13C080914601882379F0CD
:1009700080914801882359F0815080934801882351
:1009800031F484E08093E9008AE38093E8009F914A
:100990008F910F900FBE0F901F9018951F920F927E
:1009A0000FB60F9211240F931F932F933F934F93E2
:1009B0005F936F937F938F939F93AF93BF93EF93C7
:1009C000FF931092E9008091E80083FF3CC14091C1
:1009D000F1003091F1008091F100682F70E02091DA
:1009E000F100922F80E0682B792B8091F100A82FE5
:1009F000B0E02091F100922F80E0A82BB92B10914C
:100A0000F1000091F10082EF8093E800363009F0A8
:100A10005AC027E331E0A90145505040F90137970A
:100A2000859194918617970701F5FA018591949124
:100A30008A179B07D1F49A012E5F3F4FF901659108
:100A400074912E5F3F4FF9014491212F30E0902F98
:100A500080E0282B392B2F3F310519F010F02FEFB4
:100A600030E0241758F4422F09C0295F3F4F495FF7
:100A70005F4FF1E021363F0789F6E5C05EEF8091D8
:100A8000E800282F30E0C90185709070892BB9F3F8
:100A900022FDDCC0342F413108F030E1232FCB019F
:100AA00006C0FC010196E491E093F100215022235D
:100AB000C1F7630F711D431B5093E8004423F9F6FF
:100AC0003031E9F2C3C0353061F48EEF8093E80035
:100AD0008091E80080FFFCCF862F80688093E30040
:100AE000B5C0393051F5442309F0ADC060934601DB
:100AF00010924701109248018EEF8093E8008AE53A
:100B000091E021E02093E900FC010196E491E0935B
:100B1000EB00EE2369F0AC014F5F5F4FFC01849165
:100B20008093EC00CA010196FA0134913093ED00F4
:100B30002F5F253039F78EE181C0383061F44038BD
:100B400009F081C08091E80080FFFCCF80914601D0
:100B50008093F10050C0313289F4413A09F073C0FA
:100B60008091E80080FFFCCFE0E0F1E0819180938C
:100B7000F10081E0E730F807C9F73DC03032A1F459
:100B8000413209F060C08091E80082FFFCCFE0E0D4
:100B9000F1E08091F100819381E0E730F807C9F737
:100BA0008BEF8093E80027C0323251F4413209F0D4
:100BB0004AC0609347018091E80080FFFCCF1BC0D2
:100BC0003323E9F48091E80080FFFCCF423811F034
:100BD00080E00DC0A093E9008091EB0090E025E05B
:100BE000969587952A95E1F781701092E900809398
:100BF000F1001092F1008EEF8093E80027C03130B1
:100C000011F0333001F54230F1F4672BE1F42A2F73
:100C10002F77822F81508430B0F48EEF8093E800DC
:100C20002093E900333079F089E18093EB0081E093
:100C300090E002C0880F991F2A95E2F78093EA009E
:100C40001092EA0003C081E28093EB00FF91EF91E4
:100C5000BF91AF919F918F917F916F915F914F91D4
:100C60003F912F911F910F910F900FBE0F901F90EA
:100C700018951F93CF93DF93EC01FE0121961491F9
:100C8000112349F01A3019F48DE00E94C002812F1F
:100C90000E94C002F2CFDF91CF911F910895982F4B
:100CA0008A3010F087E301C080E3890F0E94C00200
:100CB00008951F93182F82958F700E944F06812FE1
:100CC0008F700E944F061F9108951F93182F892F30
:100CD0000E945906812F0E9459061F9108950E9473
:100CE00059060895EF92FF920F931F93DF93CF93CE
:100CF000CDB7DEB72B970FB6F894DEBF0FBECDBFD2
:100D00008E010F5F1F4F2BE0F80111922A95E9F732
:100D1000A8012AE030E00E94B7073BE0E32EF12C67
:100D2000EC0EFD1EF8018081882311F00E94C002A4
:100D30000F5F1F4F0E151F05A9F72B960FB6F894DE
:100D4000DEBF0FBECDBFCF91DF911F910F91FF90FE
:100D5000EF900895EF92FF920F931F93DF93CF933D
:100D6000CDB7DEB72B970FB6F894DEBF0FBECDBF61
:100D70008E010F5F1F4F2BE0F80111922A95E9F7C2
:100D8000A8012AE030E00E949D074CE0E42EF12CFF
:100D9000EC0EFD1EF8018081882311F00E94C00234
:100DA0000F5F1F4F0E151F05A9F72B960FB6F8946E
:100DB000DEBF0FBECDBFCF91DF911F910F91FF908E
:100DC000EF900895EF92FF920F931F93DF93CF93CD
:100DD00000D000D000D0CDB7DEB78E010F5F1F4F1F
:100DE00026E0F80111922A95E9F7B8014AE050E0AF
:100DF0000E94E40756E0E52EF12CEC0EFD1EF801F2
:100E00008081882311F00E94C0020F5F1F4F0E15D2
:100E10001F05A9F726960FB6F894DEBF0FBECDBF0B
:100E2000CF91DF911F910F91FF90EF900895EF9276
:100E3000FF920F931F93DF93CF93CDB7DEB7279722
:100E40000FB6F894DEBF0FBECDBF8E010F5F1F4FF0
:100E500027E0F80111922A95E9F7B8014AE050E03D
:100E60000E94870768E0E62EF12CEC0EFD1EF801CB
:100E70008081882311F00E94C0020F5F1F4F0E1562
:100E80001F05A9F727960FB6F894DEBF0FBECDBF9A
:100E9000CF91DF911F910F91FF90EF90089580E81F
:100EA00080936100109261000E94680280917C0032
:100EB0008F7780937C0080917C00806480937C009D
:100EC00080917A00846080937A0080917A008260B9
:100ED00080937A0080917A00816080937A0067E045
:100EE00070E084E40E943D0180917A0080688093E4
:100EF0007A0080917A00806480937A000E94560282
:100F00000E94E2068EE291E00E943906F7CF453258
:100F1000510520F4423010F00C949207FB0110822E
:100F2000CB010895BB274A3031F4992322F4BDE266
:100F3000909581959F4F0C94F0072532310520F450
:100F4000223010F00C94A807FA011082CA0108950B
:100F5000BB272A3051F4992342F4BDE29095809545
:100F6000709561957F4F8F4F9F4F0C94C30725322B
:100F7000310520F4223010F00C94C207FA011082DF
:100F8000CA010895BB27FA01A62F621771058105D2
:100F90009105330B30FB66F0AA27660F771F881F79
:100FA000991FAA1FA21710F0A21B63953850A9F72A
:100FB000A05DAA3308F0A95DA19336F7B111B193F2
:100FC0001082CA010C9409084532510520F44230C0
:100FD00010F00C94EF07FB011082CB010895BB27A2
:100FE000FB015527AA27880F991FAA1FA41710F0E5
:100FF000A41B83955051B9F7A05DAA3308F0A95DF1
:10100000A193009779F7B111B1931192CB010C9490
:101010000908DC01FC01672F71917723E1F7329712
:1010200004C07C916D9370836291AE17BF07C8F3C3
:061030000895F894FFCFC3
:1010360000E1000000000830303030003030303140
:101046000030313030003031303100303131300055
:101056003031313100313030300031303031003113
:101066003031300031303131003131303000313102
:041076003031000015
:00000001FF
