:100000000C941E010C943B010C943B010C943B019D
:100010000C943B010C943B010C943B010C943B0170
:100020000C943B010C943B010C94BB040C94F6041F
:100030000C943B010C943B010C943B010C943B0150
:100040000C943B010C943B010C943B010C943B0140
:100050000C943B010C943B010C943B010C943B0130
:100060000C943B010C943B010C943B010C943B0120
:100070000C943B010C943B010C943B010C943B0110
:100080000C943B010C943B010C943B010C943B0100
:100090000C943B010C943B010C943B010C943B01F0
:1000A0000C943B010C943B010C943B015804550407
:1000B00052044F044C0449044604430440043D04E4
:1000C0003A043704340431042E042B042804250494
:1000D00022041F041C0419041604130410040D0444
:1000E0000A04070404040104FE03FB03F803F503F8
:1000F000F203EF03EC03E903E603E303E003DD03AC
:10010000DA03D703D403D103CE03CB03C803C5035B
:10011000C203BF03BC03B903B603B303B003AD030B
:10012000AA03A703A403A1039E039B0398030A0049
:1001300044757479204379636C653A20000A004461
:10014000757479204379636C653A20000A00447520
:100150007479204379636C653A20000A0044757411
:1001600079204379636C653A20000A006A6F696EF2
:100170007432446966663A20000A006A6F696E74D8
:1001800031446966663A200000010000BC0112009B
:10019000020000CE01430003000011020401030924
:1001A000041502120203090429020603030904319B
:1001B00002080001C11201803601813612010002DD
:1001C00002000010C0167A040001010203010902B6
:1001D0004300020100C032090400000102020100D4
:1001E0000524001001052401010104240206052450
:1001F0000600010705820310004009040100020AFD
:1002000000000007050302400000070584024000CB
:10021000000403090412034A002E0020004600696E
:100220000065006E006500000006034D003200000E
:1002300000080334003100300000000011241FBE0C
:10024000CFEFDAE0DEBFCDBF11E0A0E0B1E0EEE13C
:10025000F8E102C005900D92A434B107D9F721E06E
:10026000A4E4B1E001C01D92AA34B207E1F70E94F4
:1002700077070C940D0C0C940000FC013181228155
:1002800093818081813321F480917B00806203C05F
:1002900080917B008F7D80937B0080917C00313347
:1002A00011F4846001C08B7F80937C0080917C007E
:1002B000213311F4826001C08D7F80937C00809196
:1002C0007C00913311F4816001C08E7F80937C00AB
:1002D0000895843409F489C0863421F0823409F009
:1002E00010C1C9C064307105B1F13CF461157105EC
:1002F00071F061307105E9F008956630710509F417
:1003000050C0DCF16730710509F45DC008951092AA
:10031000450110924401809880917E008160809315
:100320007E0080917A00806280937A0087E091E07D
:10033000E6C07093450160934401819880917E00EE
:10034000826080937E0080917A00806280937A0040
:100350008CE091E0D4C0709345016093440184988F
:1003600080917E00806180937E0080917A0080621F
:1003700080937A0081E191E0C2C085E090E09093A3
:10038000450180934401859880917E00806280932E
:100390007E0080917A00806280937A0086E191E00D
:1003A000AEC08698709345016093440180917E00B1
:1003B000806480937E0080917A00806280937A00CE
:1003C0008BE191E09CC07093450160934401879854
:1003D00080917E00806880937E0080917A008062A8
:1003E00080937A0080E291E08AC066307105D9F08E
:1003F0006730710561F16430710509F082C088E0F1
:1004000090E09093450180934401549880917D0041
:10041000816080937D0080917A00806280937A0071
:1004200085E291E06CC089E090E090934501809373
:100430004401569880917D00826080937D00809178
:100440007A00806280937A008AE291E058C08AE064
:1004500090E09093450180934401579880917D00EE
:10046000846080937D0080917A00806280937A001E
:100470008FE291E044C065307105D1F066307105BE
:1004800059F164307105E9F58BE090E090934501F6
:1004900080934401249880917D00886080937D0042
:1004A00080917A00806280937A0084E391E027C093
:1004B0008CE090E0909345018093440125988091D1
:1004C0007D00806180937D0080917A0080628093BE
:1004D0007A0089E391E013C08DE090E090934501AC
:1004E00080934401269880917D00806280937D00F6
:1004F00080917A00806280937A008EE391E00C9480
:100500003D01089580917A0084FF05C080917A00B2
:10051000806180937A0080917800909179000895AD
:1005200081E08093D70080EA8093D80082E189BD82
:1005300009B400FEFDCF80E98093D8001092E0005E
:1005400010924601109247018CE08093E20078946B
:1005500008958091460108959FB7F89480914601CF
:10056000882339F083E08093E9008091E80085FDDD
:1005700003C09FBF8FEF08952091F1008091E800A4
:1005800085FD03C08BE68093E8009FBF822F08950E
:100590009FB7F89480914601882329F083E08093E7
:1005A000E9008091F2009FBF089580914601882361
:1005B00071F09FB7F89483E08093E9002BE602C0C6
:1005C0002093E8008091E80085FDFACF9FBF089551
:1005D000482F809146018823D9F12FB7F89484E001
:1005E0008093E90080914901882341F08091E800DF
:1005F00085FD02C02FBF12C0109249019091E40006
:10060000975E34E08091E80085FD13C02FBF809194
:10061000E400891729F481E0809349018FEF089560
:10062000809146018823A1F02FB7F8943093E90018
:10063000E9CF4093F1008091E80085FD03C08AE393
:100640008093E80085E0809348012FBF80E0089503
:100650008FEF0895282F80914601882351F09FB78E
:10066000F89484E08093E9008091E80085FD03C060
:100670009FBF8FEF08952093F1008091E80085FDE2
:1006800003C08AE38093E80085E0809348019FBF20
:1006900080E00895CF93DF93EC0180914601882399
:1006A00009F41CC13FB7F89484E08093E90080917D
:1006B0004901882309F407C18091E80085FD02C043
:1006C0003FBF0CC110924901FEC09091E400975EBB
:1006D0008091E80085FD13C03FBF8091E400891739
:1006E00021F481E080934901F9C08091460188237B
:1006F00009F4F4C03FB7F8945093E900E9CF809132
:10070000F2002A2F281B822F90E06817790708F43F
:10071000262F822F90E08134910508F0C6C08A5AB6
:100720009F4FFC01EE0FFF1F0590F491E02D0994FF
:1007300089918093F10089918093F1008991809350
:10074000F10089918093F10089918093F100899162
:100750008093F10089918093F10089918093F10059
:1007600089918093F10089918093F1008991809320
:10077000F10089918093F10089918093F100899132
:100780008093F10089918093F10089918093F10029
:1007900089918093F10089918093F10089918093F0
:1007A000F10089918093F10089918093F100899102
:1007B0008093F10089918093F10089918093F100F9
:1007C00089918093F10089918093F10089918093C0
:1007D000F10089918093F10089918093F1008991D2
:1007E0008093F10089918093F10089918093F100C9
:1007F00089918093F10089918093F1008991809390
:10080000F10089918093F10089918093F1008991A1
:100810008093F10089918093F10089918093F10098
:1008200089918093F10089918093F100899180935F
:10083000F10089918093F10089918093F100899171
:100840008093F10089918093F10089918093F10068
:1008500089918093F10089918093F100899180932F
:10086000F10089918093F10089918093F100899141
:100870008093F10089918093F10089918093F10038
:1008800089918093F10089918093F10089918093FF
:10089000F10089918093F10089918093F100899111
:1008A0008093F10089918093F10089918093F10008
:1008B0008091E80085FD02C0B093E800621B7109D9
:1008C0004093480104C054E0A0E4BAE345E0611558
:1008D000710509F0FACE3FBF80E001C08FEFDF91D4
:1008E000CF9108959FB7F89480914801882341F0F3
:1008F00084E08093E9008AE38093E8001092480145
:100900009FBF089580910401089580910501089585
:10091000809106010895809147010895382F9FB76F
:10092000F89480914601882339F022E02093E90071
:100930008091E80085FD03C09FBF8FEF089581EA95
:100940008093F10080E28093F1001092F100109208
:10095000F1001092F1001092F1002093F10010923A
:10096000F1003093F1001092F1008AE38093E800E7
:100970009FBF80E008951F920F920FB60F9211242F
:100980008F939F938091E1001092E100982F83FF55
:1009900011C01092E90081E08093EB001092EC000E
:1009A00082E18093ED0088E08093F0001092460190
:1009B0001092470192FF13C080914601882379F07D
:1009C00080914801882359F0815080934801882301
:1009D00031F484E08093E9008AE38093E8009F91FA
:1009E0008F910F900FBE0F901F9018951F920F922E
:1009F0000FB60F9211240F931F932F933F934F9392
:100A00005F936F937F938F939F93AF93BF93EF9376
:100A1000FF931092E9008091E80083FF3CC1409170
:100A2000F1003091F1008091F100682F70E0209189
:100A3000F100922F80E0682B792B8091F100A82F94
:100A4000B0E02091F100922F80E0A82BB92B1091FB
:100A5000F1000091F10082EF8093E800363009F058
:100A60005AC02FE831E0A90145505040F9013797AD
:100A7000859194918617970701F5FA0185919491D4
:100A80008A179B07D1F49A012E5F3F4FF9016591B8
:100A900074912E5F3F4FF9014491212F30E0902F48
:100AA00080E0282B392B2F3F310519F010F02FEF64
:100AB00030E0241758F4422F09C0295F3F4F495FA7
:100AC0005F4FF1E0293B3F0789F6E5C05EEF80917B
:100AD000E800282F30E0C90185709070892BB9F3A8
:100AE00022FDDCC0342F413108F030E1232FCB014F
:100AF00006C0FC010196E491E093F100215022230D
:100B0000C1F7630F711D431B5093E8004423F9F6AE
:100B10003031E9F2C3C0353061F48EEF8093E800E4
:100B20008091E80080FFFCCF862F80688093E300EF
:100B3000B5C0393051F5442309F0ADC0609346018A
:100B400010924701109248018EEF8093E80082EBEB
:100B500091E021E02093E900FC010196E491E0930B
:100B6000EB00EE2369F0AC014F5F5F4FFC01849115
:100B70008093EC00CA010196FA0134913093ED00A4
:100B80002F5F253039F78EE181C0383061F440386D
:100B900009F081C08091E80080FFFCCF8091460180
:100BA0008093F10050C0313289F4413A09F073C0AA
:100BB0008091E80080FFFCCFE0E0F1E0819180933C
:100BC000F10081E0E730F807C9F73DC03032A1F409
:100BD000413209F060C08091E80082FFFCCFE0E084
:100BE000F1E08091F100819381E0E730F807C9F7E7
:100BF0008BEF8093E80027C0323251F4413209F084
:100C00004AC0609347018091E80080FFFCCF1BC081
:100C10003323E9F48091E80080FFFCCF423811F0E3
:100C200080E00DC0A093E9008091EB0090E025E00A
:100C3000969587952A95E1F781701092E900809347
:100C4000F1001092F1008EEF8093E80027C0313060
:100C500011F0333001F54230F1F4672BE1F42A2F23
:100C60002F77822F81508430B0F48EEF8093E8008C
:100C70002093E900333079F089E18093EB0081E043
:100C800090E002C0880F991F2A95E2F78093EA004E
:100C90001092EA0003C081E28093EB00FF91EF9194
:100CA000BF91AF919F918F917F916F915F914F9184
:100CB0003F912F911F910F910F900FBE0F901F909A
:100CC00018951F93CF93DF93EC01FE0121961491A9
:100CD000112349F01A3019F48DE00E94E802812FA7
:100CE0000E94E802F2CFDF91CF911F910895982FD3
:100CF0008A3010F087E301C080E3890F0E94E80288
:100D000008951F93182F82958F700E947706812F68
:100D10008F700E9477061F9108951F93182F892FB7
:100D20000E948106812F0E9481061F9108950E94D2
:100D300081060895EF92FF920F931F93DF93CF9355
:100D4000CDB7DEB72B970FB6F894DEBF0FBECDBF81
:100D50008E010F5F1F4F2BE0F80111922A95E9F7E2
:100D6000A8012AE030E00E94AB0B3BE0E32EF12C1F
:100D7000EC0EFD1EF8018081882311F00E94E8022C
:100D80000F5F1F4F0E151F05A9F72B960FB6F8948E
:100D9000DEBF0FBECDBFCF91DF911F910F91FF90AE
:100DA000EF900895EF92FF920F931F93DF93CF93ED
:100DB000CDB7DEB72B970FB6F894DEBF0FBECDBF11
:100DC0008E010F5F1F4F2BE0F80111922A95E9F772
:100DD000A8012AE030E00E94910B4CE0E42EF12CB7
:100DE000EC0EFD1EF8018081882311F00E94E802BC
:100DF0000F5F1F4F0E151F05A9F72B960FB6F8941E
:100E0000DEBF0FBECDBFCF91DF911F910F91FF903D
:100E1000EF900895EF92FF920F931F93DF93CF937C
:100E200000D000D000D0CDB7DEB78E010F5F1F4FCE
:100E300026E0F80111922A95E9F7B8014AE050E05E
:100E40000E94D80B56E0E52EF12CEC0EFD1EF801A9
:100E50008081882311F00E94E8020F5F1F4F0E155A
:100E60001F05A9F726960FB6F894DEBF0FBECDBFBB
:100E7000CF91DF911F910F91FF90EF900895EF9226
:100E8000FF920F931F93DF93CF93CDB7DEB72797D2
:100E90000FB6F894DEBF0FBECDBF8E010F5F1F4FA0
:100EA00027E0F80111922A95E9F7B8014AE050E0ED
:100EB0000E947B0B68E0E62EF12CEC0EFD1EF80183
:100EC0008081882311F00E94E8020F5F1F4F0E15EA
:100ED0001F05A9F727960FB6F894DEBF0FBECDBF4A
:100EE000CF91DF911F910F91FF90EF90089580E8CF
:100EF00080936100109261000E949002519A529A70
:100F00003E9A869A879A3E9A809191008460809357
:100F10009100809191008D7F80939100809191004C
:100F20008E7F8093910080919100806180939100E9
:100F30008091910088608093910080919000826000
:100F400080939000809190008E7F8093900080919C
:100F50009000806880939000809190008F7B8093B8
:100F6000900080917C008F7780937C0080917C0042
:100F7000806480937C0080917A00846080937A0002
:100F800080917A00826080937A0080917A008160FB
:100F900080937A0067E070E084E40E94690166E073
:100FA00070E084E40E94690165E070E082E40E94E0
:100FB000690160E070E086E40E9469018EE390E0E0
:100FC0009093970080939600C0E0D0E0E12CF12C44
:100FD00000E010E08FE291E00E943D0180917A00F4
:100FE000806880937A0080917A00806480937A0090
:100FF000C0907800D09079002FEF83EC99E02150D9
:1010000080409040E1F700C0000080917A008F7727
:1010100080937A008AE291E00E943D0180917A00FB
:10102000806880937A0080917A00806480937A004F
:1010300080907800909079002FEF83EC99E0215018
:1010400080409040E1F700C0000080917A008F77E7
:1010500080937A0089E391E00E943D0180917A00BB
:10106000806880937A0080917A00806480937A000F
:10107000A0907800B09079002FEF83EC99E0215098
:1010800080409040E1F700C0000080917A008F77A7
:1010900080937A0087E091E00E943D0180917A0080
:1010A000806880937A0080917A00806480937A00CF
:1010B00060917800709179002FEF83EC99E02150D6
:1010C00080409040E1F700C0000068197909CA1813
:1010D000DB08C330D10511F476018B015B01A01A46
:1010E000B10ACE18DF0821968BE791E00E946106D5
:1010F000C5010E943F0789E791E00E9461068CE6E6
:1011000091E00E946106C6010E943F078AE691E0D5
:101110000E94610659985A988E988F9829E2A216D3
:10112000B104CCF1599A5A98B501882777FD80957A
:10113000982F0E94640A23E333E343E150E40E94C2
:10114000F40A20E030E040E85AE30E94F40A20E08C
:1011500030E048EC52E40E94F40A2B013C0120E00C
:1011600030E048EC52E40E94F00A181634F4412CA6
:10117000512C38EC632E32E4732E8DE591E00E9401
:101180006106C301B2010E94310ACB010E943F07F0
:101190008BE591E03FC0882799278A199B09899799
:1011A0000CF459C059985A9AB501882777FD809553
:1011B000982F0E94640A23E333E343E150EC0E943A
:1011C000F40A20E030E040E85AE30E94F40A20E00C
:1011D00030E048EC52E40E94F40A2B013C0120E08C
:1011E00030E048EC52E40E94F00A181634F4412C26
:1011F000512C28EC622E22E4722E8EE491E00E94A3
:101200006106C301B2010E94310ACB010E943F076F
:101210008CE491E00E946106A0909600B090970047
:1012200020E030E048EC52E4C301B2010E94C90959
:101230002B013C01B50180E090E00E94620A9B0115
:10124000AC01C301B2010E94F40A0E94360A7093F5
:1012500099006093980089E2C816D104CCF18E9A67
:101260008F98B601882777FD8095982F0E94640A91
:1012700026E636E646E65FE30E94F40A20E030E028
:1012800040E85AE30E94F40A20E030E048EC52E4DF
:101290000E94F40A4B015C0120E030E048EC52E48B
:1012A0000E94F00A181634F4812C912C98ECA92E87
:1012B00092E4B92E8FE391E00E946106C501B4016A
:1012C0000E94310ACB010E943F078DE391E03FC0AD
:1012D000882799278C199D0989970CF47BCE8E98C5
:1012E0008F9AB601882777FD8095982F0E94640A0F
:1012F00026E636E646E65FEB0E94F40A20E030E0A0
:1013000040E85AE30E94F40A20E030E048EC52E45E
:101310000E94F40A4B015C0120E030E048EC52E40A
:101320000E94F00A181634F4812C912C88ECA82E17
:1013300082E4B82E80E391E00E946106C501B40109
:101340000E94310ACB010E943F078EE291E00E9489
:101350006106C0909600D090970020E030E048EC05
:1013600052E4C501B4010E94C9094B015C01B601F8
:1013700080E090E00E94620A9B01AC01C501B401CB
:101380000E94F40A0E94360A7093990060939800B4
:1013900021CE0CD0EBC0E3D040F0DAD030F021F415
:1013A0005F3F19F0CCC0511115C1CFC0F0D098F3F8
:1013B0009923C9F35523B1F3951B550BBB27AA27D6
:1013C00062177307840738F09F5F5F4F220F331F48
:1013D000441FAA1FA9F333D00E2E3AF0E0E830D014
:1013E00091505040E695001CCAF729D0FE2F27D017
:1013F000660F771F881FBB1F261737074807AB07E5
:10140000B0E809F0BB0B802DBF01FF2793585F4F59
:101410002AF09E3F510568F092C0DCC05F3FECF3BC
:10142000983EDCF3869577956795B795F7959F5F1E
:10143000C9F7880F911D9695879597F90895E1E072
:10144000660F771F881FBB1F621773078407BA07D1
:1014500020F0621B730B840BBA0BEE1F88F7E0952C
:10146000089504D06894B111B5C0089598D088F05B
:101470009F5790F0B92F9927B751A0F0D1F0660F80
:10148000771F881F991F1AF0BA95C9F712C0B1309B
:1014900081F09FD0B1E008959CC0672F782F8827F6
:1014A000B85F39F0B93FCCF3869577956795B395DA
:1014B000D9F73EF490958095709561957F4F8F4F49
:1014C0009F4F0895E89409C097FB3EF4909580954E
:1014D000709561957F4F8F4F9F4F9923A9F0F92FFA
:1014E00096E9BB279395F695879577956795B79578
:1014F000F111F8CFFAF4BB0F11F460FF1BC06F5F5E
:101500007F4F8F4F9F4F16C0882311F096E911C06F
:10151000772321F09EE8872F762F05C0662371F090
:1015200096E8862F70E060E02AF09A95660F771FA4
:10153000881FDAF7880F9695879597F9089597F998
:101540009F6780E870E060E008959FEF80EC089569
:1015500000240A9416161706180609060895002492
:101560000A9412161306140605060895092E03940C
:10157000000C11F4882352F0BB0F40F4BF2B11F480
:1015800060FF04C06F5F7F4F8F4F9F4F089557FDDF
:101590009058440F551F59F05F3F71F04795880FE1
:1015A00097FB991F61F09F3F79F087950895121678
:1015B00013061406551FF2CF4695F1DF08C0161624
:1015C00017061806991FF1CF8695710561050894D5
:1015D0000895E894BB2766277727CB0197F90895EC
:1015E00066D008F48FEF08950BD0C0CFB1DF28F09C
:1015F000B6DF18F0952309F0A2CFA7CF1124EACFC8
:10160000C6DFA0F3959FD1F3950F50E0551F629F61
:10161000F001729FBB27F00DB11D639FAA27F00D4B
:10162000B11DAA1F649F6627B00DA11D661F829F72
:101630002227B00DA11D621F739FB00DA11D621F57
:10164000839FA00D611D221F749F3327A00D611D74
:10165000231F849F600D211D822F762F6A2F112456
:101660009F5750408AF0E1F088234AF0EE0FFF1FA9
:10167000BB1F661F771F881F91505040A9F79E3FE0
:10168000510570F05CCFA6CF5F3FECF3983EDCF3E2
:10169000869577956795B795F795E7959F5FC1F71D
:1016A000FE2B880F911D9695879597F90895990FB0
:1016B0000008550FAA0BE0E8FEEF16161706E8071C
:1016C000F907C0F012161306E407F50798F0621B3D
:1016D000730B840B950B39F40A2661F0232B242B12
:1016E000252B21F408950A2609F4A140A6958FEF31
:1016F000811D811D08954532510520F4423010F0BE
:101700000C94860BFB011082CB010895BB274A3055
:1017100031F4992322F4BDE2909581959F4F0C946A
:10172000E40B2532310520F4223010F00C949C0B90
:10173000FA011082CA010895BB272A3051F4992377
:1017400042F4BDE290958095709561957F4F8F4FE3
:101750009F4F0C94B70B2532310520F4223010F046
:101760000C94B60BFA011082CA010895BB27FA0146
:10177000A62F6217710581059105330B30FB66F0CA
:10178000AA27660F771F881F991FAA1FA21710F09C
:10179000A21B63953850A9F7A05DAA3308F0A95D94
:1017A000A19336F7B111B1931082CA010C94FD0BCD
:1017B0004532510520F4423010F00C94E30BFB014C
:1017C0001082CB010895BB27FB015527AA27880F5C
:1017D000991FAA1FA41710F0A41B83955051B9F7A5
:1017E000A05DAA3308F0A95DA193009779F7B11124
:1017F000B1931192CB010C94FD0BDC01FC01672F1E
:1018000071917723E1F7329704C07C916D937083D7
:0E1810006291AE17BF07C8F30895F894FFCF9A
:10181E0000E1000000000830303030003030303150
:10182E000030313030003031303100303131300065
:10183E003031313100313030300031303031003123
:10184E003031300031303131003131303000313112
:04185E003031000025
:00000001FF
