:100000000C9401010C941E010C941E010C941E0111
:100010000C941E010C941E010C941E010C941E01E4
:100020000C941E010C941E010C9481040C94BC04CD
:100030000C941E010C941E010C941E010C941E01C4
:100040000C941E010C941E010C941E010C941E01B4
:100050000C941E010C941E010C941E010C941E01A4
:100060000C941E010C941E010C941E010C941E0194
:100070000C941E010C941E010C941E010C941E0184
:100080000C941E010C941E010C941E010C941E0174
:100090000C941E010C941E010C941E010C941E0164
:1000A0000C941E010C941E010C941E011E041B04D2
:1000B0001804150412040F040C04090406040304B4
:1000C0000004FD03FA03F703F403F103EE03EB036B
:1000D000E803E503E203DF03DC03D903D603D3031C
:1000E000D003CD03CA03C703C403C103BE03BB03CC
:1000F000B803B503B203AF03AC03A903A603A3037C
:10010000A0039D039A039703940391038E038B032B
:100110008803850382037F037C03790376037303DB
:1001200070036D036A036703640361035E030A00DF
:10013000706F74656E74696F6D65746572000A0026
:1001400070686F746F7472616E7369746F7200009F
:10015000010000830112000200009501430003002A
:1001600000D8010401030904DC011202030904F0B0
:10017000010603030904F801080001C112018036D9
:100180000181361201000202000010C0167A04003C
:10019000010102030109024300020100C032090407
:1001A00000000102020100052400100105240101E4
:1001B000010424020605240600010705820310003D
:1001C0004009040100020A00000007050302400084
:1001D00000070584024000000403090412034A00DA
:1001E0002E0020004600690065006E0065000000DA
:1001F00006034D00320000000803340031003000D7
:10020000000011241FBECFEFDAE0DEBFCDBF11E04A
:10021000A0E0B1E0E4E3F3E102C005900D92A83064
:10022000B107D9F711E0A8E0B1E001C01D92AC30F0
:10023000B107E1F70E9420010C9498090C9400008A
:100240008F929F92AF92BF92CF92DF92EF92FF92E6
:100250000F931F93CF93DF93569A5E980E94560296
:10026000809191008B7F80939100809191008260BA
:1002700080939100809191008160809391008091A2
:1002800091008061809391008091910088608093BB
:100290009100809190008260809390008091900006
:1002A0008E7F809390008091900080688093900072
:1002B0008091900080648093900080917C008F7783
:1002C00080937C0080917C00806480937C0080918E
:1002D0007A00846080937A0080917A0082608093B3
:1002E0007A0080917A00816080937A0080917D000D
:1002F000806180937D0080917D00886080937D0087
:1003000080917A00806280937A0080917B00806285
:1003100080937B0080917C008B7F80937C00809118
:100320007C00826080937C0080917C00816080935F
:100330007C0080917A00806880937A0080917A00B6
:10034000806480937A003E9A80E8809361001092E6
:1003500061003DE7832E912CC4E6D0E080E491E07B
:100360000E94270680917800909179000E94D00623
:100370008EE391E00E9427068091780090917900A9
:100380008855924048F4109299001092980010926B
:1003900097001092960066C080917A008F778093C4
:1003A0007A0080917B00806280937B0080917C004A
:1003B000846080937C0080917C008D7F80937C00A2
:1003C00080917C008E7F80937C0080917A00806891
:1003D00080937A0080917A00806480937A0080E331
:1003E00091E00E94270680917800909179000E9408
:1003F000D0068EE291E00E942706909297008092AC
:1004000096008091780090917900E0909600F090AD
:100410009700892F9927869586958C9FB0018D9F8F
:10042000700D9C9F700D112480E090E00E94D10718
:1004300020E030E048EC52E40E943D075B016C0193
:1004400000E010E0C801B7010E94D1079B01AC0198
:10045000C601B5010E945F080E94A507709399002C
:100460006093980080917A008F7780937A008091D2
:100470007B00806280937B0080917C008B7F8093E7
:100480007C0080917C00826080937C0080917C0065
:10049000816080937C0080917A00806880937A00EC
:1004A00080917A00806480937A0058CF81E08093B5
:1004B000D70080EA8093D80082E189BD09B400FEAC
:1004C000FDCF80E98093D8001092E00010920801DF
:1004D000109209018CE08093E20078940895809155
:1004E000080108959FB7F89480910801882339F096
:1004F00083E08093E9008091E80085FD03C09FBF01
:100500008FEF08952091F1008091E80085FD03C0F0
:100510008BE68093E8009FBF822F08959FB7F894E1
:1005200080910801882329F083E08093E90080917D
:10053000F2009FBF089580910801882371F09FB752
:10054000F89483E08093E9002BE602C02093E80052
:100550008091E80085FDFACF9FBF0895482F8091D4
:1005600008018823D9F12FB7F89484E08093E9003B
:1005700080910B01882341F08091E80085FD02C045
:100580002FBF12C010920B019091E400975E34E0EF
:100590008091E80085FD13C02FBF8091E40089178A
:1005A00029F481E080930B018FEF08958091080179
:1005B0008823A1F02FB7F8943093E900E9CF409356
:1005C000F1008091E80085FD03C08AE38093E80094
:1005D00085E080930A012FBF80E008958FEF089592
:1005E000282F80910801882351F09FB7F89484E068
:1005F0008093E9008091E80085FD03C09FBF8FEFE5
:1006000008952093F1008091E80085FD03C08AE3FE
:100610008093E80085E080930A019FBF80E0089501
:10062000CF93DF93EC0180910801882309F41CC16A
:100630003FB7F89484E08093E90080910B01882310
:1006400009F407C18091E80085FD02C03FBF0CC1DD
:1006500010920B01FEC09091E400975E8091E8003B
:1006600085FD13C03FBF8091E400891721F481E02C
:1006700080930B01F9C080910801882309F4F4C02C
:100680003FB7F8945093E900E9CF8091F2002A2F08
:10069000281B822F90E06817790708F4262F822FF5
:1006A00090E08134910508F0C6C08A5A9F4FFC0142
:1006B000EE0FFF1F0590F491E02D0994899180932E
:1006C000F10089918093F10089918093F1008991E3
:1006D0008093F10089918093F10089918093F100DA
:1006E00089918093F10089918093F10089918093A1
:1006F000F10089918093F10089918093F1008991B3
:100700008093F10089918093F10089918093F100A9
:1007100089918093F10089918093F1008991809370
:10072000F10089918093F10089918093F100899182
:100730008093F10089918093F10089918093F10079
:1007400089918093F10089918093F1008991809340
:10075000F10089918093F10089918093F100899152
:100760008093F10089918093F10089918093F10049
:1007700089918093F10089918093F1008991809310
:10078000F10089918093F10089918093F100899122
:100790008093F10089918093F10089918093F10019
:1007A00089918093F10089918093F10089918093E0
:1007B000F10089918093F10089918093F1008991F2
:1007C0008093F10089918093F10089918093F100E9
:1007D00089918093F10089918093F10089918093B0
:1007E000F10089918093F10089918093F1008991C2
:1007F0008093F10089918093F10089918093F100B9
:1008000089918093F10089918093F100899180937F
:10081000F10089918093F10089918093F100899191
:100820008093F10089918093F10089918093F10088
:1008300089918093F10089918093F1008091E80083
:1008400085FD02C0B093E800621B710940930A0164
:1008500004C054E0A0E4BAE345E06115710509F075
:10086000FACE3FBF80E001C08FEFDF91CF910895B6
:100870009FB7F89480910A01882341F084E0809327
:10088000E9008AE38093E80010920A019FBF08956F
:1008900080910401089580910501089580910601D9
:1008A0000895809109010895382F9FB7F894809199
:1008B0000801882339F022E02093E9008091E800C4
:1008C00085FD03C09FBF8FEF089581EA8093F100FB
:1008D00080E28093F1001092F1001092F1001092EA
:1008E000F1001092F1002093F1001092F10030938A
:1008F000F1001092F1008AE38093E8009FBF80E04E
:1009000008951F920F920FB60F9211248F939F9309
:100910008091E1001092E100982F83FF11C01092A6
:10092000E90081E08093EB001092EC0082E180937B
:10093000ED0088E08093F000109208011092090108
:1009400092FF13C080910801882379F080910A01F9
:10095000882359F0815080930A01882331F484E080
:100960008093E9008AE38093E8009F918F910F9034
:100970000FBE0F901F9018951F920F920FB60F92F7
:1009800011240F931F932F933F934F935F936F9374
:100990007F938F939F93AF93BF93EF93FF931092A7
:1009A000E9008091E80083FF3CC14091F100309163
:1009B000F1008091F100682F70E02091F100922FFA
:1009C00080E0682B792B8091F100A82FB0E0209176
:1009D000F100922F80E0A82BB92B1091F10000912B
:1009E000F10082EF8093E800363009F05AC026E526
:1009F00031E0A90145505040F90137978591949114
:100A00008617970701F5FA01859194918A179B073C
:100A1000D1F49A012E5F3F4FF901659174912E5FD9
:100A20003F4FF9014491212F30E0902F80E0282B97
:100A3000392B2F3F310519F010F02FEF30E024173C
:100A400058F4422F09C0295F3F4F495F5F4FF1E0E3
:100A500020383F0789F6E5C05EEF8091E800282F37
:100A600030E0C90185709070892BB9F322FDDCC09C
:100A7000342F413108F030E1232FCB0106C0FC01B7
:100A80000196E491E093F10021502223C1F7630F16
:100A9000711D431B5093E8004423F9F63031E9F20D
:100AA000C3C0353061F48EEF8093E8008091E80098
:100AB00080FFFCCF862F80688093E300B5C039307B
:100AC00051F5442309F0ADC060930801109209016B
:100AD00010920A018EEF8093E80089E791E021E00F
:100AE0002093E900FC010196E491E093EB00EE23F2
:100AF00069F0AC014F5F5F4FFC0184918093EC0083
:100B0000CA010196FA0134913093ED002F5F253030
:100B100039F78EE181C0383061F4403809F081C086
:100B20008091E80080FFFCCF809108018093F10064
:100B300050C0313289F4413A09F073C08091E80025
:100B400080FFFCCFE0E0F1E081918093F10081E053
:100B5000E730F807C9F73DC03032A1F4413209F05F
:100B600060C08091E80082FFFCCFE0E0F1E080917E
:100B7000F100819381E0E730F807C9F78BEF8093AC
:100B8000E80027C0323251F4413209F04AC0609384
:100B900009018091E80080FFFCCF1BC03323E9F4FA
:100BA0008091E80080FFFCCF423811F080E00DC05A
:100BB000A093E9008091EB0090E025E09695879561
:100BC0002A95E1F781701092E9008093F10010926C
:100BD000F1008EEF8093E80027C0313011F0333000
:100BE00001F54230F1F4672BE1F42A2F2F77822FA1
:100BF00081508430B0F48EEF8093E8002093E900B8
:100C0000333079F089E18093EB0081E090E002C01D
:100C1000880F991F2A95E2F78093EA001092EA0064
:100C200003C081E28093EB00FF91EF91BF91AF9100
:100C30009F918F917F916F915F914F913F912F91F4
:100C40001F910F910F900FBE0F901F9018951F933B
:100C5000CF93DF93EC01FE0121961491112349F00B
:100C60001A3019F48DE00E94AE02812F0E94AE026C
:100C7000F2CFDF91CF911F910895982F8A3010F015
:100C800087E301C080E3890F0E94AE0208951F939D
:100C9000182F82958F700E943D06812F8F700E94C1
:100CA0003D061F9108951F93182F892F0E94470614
:100CB000812F0E9447061F9108950E9447060895BC
:100CC000EF92FF920F931F93DF93CF93CDB7DEB7D1
:100CD0002B970FB6F894DEBF0FBECDBF8E010F5F0E
:100CE0001F4F2BE0F80111922A95E9F7A8012AE09D
:100CF00030E00E9417093BE0E32EF12CEC0EFD1EC4
:100D0000F8018081882311F00E94AE020F5F1F4F0F
:100D10000E151F05A9F72B960FB6F894DEBF0FBE70
:100D2000CDBFCF91DF911F910F91FF90EF9008956C
:100D3000EF92FF920F931F93DF93CF93CDB7DEB760
:100D40002B970FB6F894DEBF0FBECDBF8E010F5F9D
:100D50001F4F2BE0F80111922A95E9F7A8012AE02C
:100D600030E00E94E3084CE0E42EF12CEC0EFD1E76
:100D7000F8018081882311F00E94AE020F5F1F4F9F
:100D80000E151F05A9F72B960FB6F894DEBF0FBE00
:100D9000CDBFCF91DF911F910F91FF90EF900895FC
:100DA000EF92FF920F931F93DF93CF9300D000D069
:100DB00000D0CDB7DEB78E010F5F1F4F26E0F801E0
:100DC00011922A95E9F7B8014AE050E00E943C09E7
:100DD00056E0E52EF12CEC0EFD1EF80180818823F3
:100DE00011F00E94AE020F5F1F4F0E151F05A9F7ED
:100DF00026960FB6F894DEBF0FBECDBFCF91DF9120
:100E00001F910F91FF90EF900895EF92FF920F9333
:100E10001F93DF93CF93CDB7DEB727970FB6F89424
:100E2000DEBF0FBECDBF8E010F5F1F4F27E0F80161
:100E300011922A95E9F7B8014AE050E00E94C208F1
:100E400068E0E62EF12CEC0EFD1EF801808188236F
:100E500011F00E94AE020F5F1F4F0E151F05A9F77C
:100E600027960FB6F894DEBF0FBECDBFCF91DF91AE
:100E70001F910F91FF90EF9008950CD0E6C0DED047
:100E800040F0D5D030F021F45F3F19F0C7C05111C8
:100E900010C1CAC0EBD098F39923C9F35523B1F31D
:100EA000951B550BBB27AA2762177307840738F0D9
:100EB0009F5F5F4F220F331F441FAA1FA9F333D038
:100EC0000E2E3AF0E0E830D091505040E695001CEC
:100ED000CAF729D0FE2F27D0660F771F881FBB1FA8
:100EE000261737074807AB07B0E809F0BB0B802D82
:100EF000BF01FF2793585F4F2AF09E3F510568F0CE
:100F00008DC0D7C05F3FECF3983EDCF386957795B4
:100F10006795B795F7959F5FC9F7880F911D9695CF
:100F2000879597F90895E1E0660F771F881FBB1F2B
:100F3000621773078407BA0720F0621B730B840BD8
:100F4000BA0BEE1F88F7E095089598D088F09F5768
:100F500090F0B92F9927B751A0F0D1F0660F771F05
:100F6000881F991F1AF0BA95C9F712C0B13081F0E5
:100F70009FD0B1E008959CC0672F782F8827B85F75
:100F800039F0B93FCCF3869577956795B395D9F746
:100F90003EF490958095709561957F4F8F4F9F4F50
:100FA0000895E89409C097FB3EF49095809570955C
:100FB00061957F4F8F4F9F4F9923A9F0F92F96E9A5
:100FC000BB279395F695879577956795B795F1111A
:100FD000F8CFFAF4BB0F11F460FF1BC06F5F7F4FB7
:100FE0008F4F9F4F16C0882311F096E911C07723C9
:100FF00021F09EE8872F762F05C0662371F096E8D2
:10100000862F70E060E02AF09A95660F771F881FA0
:10101000DAF7880F9695879597F9089597F99F675E
:1010200080E870E060E008959FEF80EC0895002470
:101030000A941616170618060906089500240A943D
:1010400012161306140605060895092E0394000CC3
:1010500011F4882352F0BB0F40F4BF2B11F460FF52
:1010600004C06F5F7F4F8F4F9F4F089557FD90587B
:10107000440F551F59F05F3F71F04795880F97FB5C
:10108000991F61F09F3F79F0879508951216130616
:101090001406551FF2CF4695F1DF08C01616170645
:1010A0001806991FF1CF869571056105089408957A
:1010B000E894BB2766277727CB0197F908950BD0D3
:1010C000C4CFB5DF28F0BADF18F0952309F0A6CF1A
:1010D000ABCF1124EECFCADFA0F3959FD1F3950FCC
:1010E00050E0551F629FF001729FBB27F00DB11DAC
:1010F000639FAA27F00DB11DAA1F649F6627B00D3C
:10110000A11D661F829F2227B00DA11D621F739F24
:10111000B00DA11D621F839FA00D611D221F749F32
:101120003327A00D611D231F849F600D211D822F79
:10113000762F6A2F11249F5750408AF0E1F08823C0
:101140004AF0EE0FFF1FBB1F661F771F881F9150CD
:101150005040A9F79E3F510570F060CFAACF5F3F86
:10116000ECF3983EDCF3869577956795B795F79500
:10117000E7959F5FC1F7FE2B880F911D9695879588
:1011800097F90895FB019F01E8944230C4F045327D
:10119000B4F44A3029F497FB1EF4909581959F4F43
:1011A000642F77270E946209805D8A330CF0895D85
:1011B0008193CB010097A1F716F45DE25193108261
:1011C000C9010C945209FA01CF93FF93EF93223097
:1011D00044F1253234F5C22FE894CA3049F497FB24
:1011E0003EF490958095709561957F4F8F4F9F4FFE
:1011F0002C2F332744275527FF93EF930E9476091E
:10120000EF91FF91605D6A330CF0695D6193B90104
:10121000CA01605070408040904051F716F4CDE212
:10122000C19310828F919F91CF910C945209FA0132
:10123000CF93FF93EF932230CCF02532BCF4C22F32
:101240002C2F332744275527FF93EF930E947609CD
:10125000EF91FF91605D6A330CF0695D6193B901B4
:10126000CA01605070408040904051F710828F91C9
:101270009F91CF910C945209FB019F01423074F071
:10128000453264F4642F77270E946209805D8A33B7
:101290000CF0895D8193CB010097A1F71082C90101
:1012A0000C945209DC01FC01672F71917723E1F75F
:1012B000329704C07C916D9370836291AE17BF0723
:1012C000C8F30895AA1BBB1B51E107C0AA1FBB1F8F
:1012D000A617B70710F0A61BB70B881F991F5A95C2
:1012E000A9F780959095BC01CD010895A1E21A2E31
:1012F000AA1BBB1BFD010DC0AA1FBB1FEE1FFF1FBA
:10130000A217B307E407F50720F0A21BB30BE40B09
:10131000F50B661F771F881F991F1A9469F7609550
:101320007095809590959B01AC01BD01CF0108950A
:04133000F894FFCF5F
:0813340000E1000000000800C8
:00000001FF
